S0100000334C656452746F732E7372656324
S11300000C942A000C9447000C9447000C9447006D
S11300100C9447000C9447000C9447000C945D0228
S11300200C9447000C9447000C9447000C94470030
S11300300C9447000C9447000C9447000C94470020
S11300400C9447000C9447000C9447000C94470010
S11300500C94470011241FBECFE5D8E0DEBFCDBF0E
S113006010E0A0E6B0E0ECE8FEE002C005900D92DE
S1130070AA37B107D9F726E0AAE7B0E001C01D927C
S1130080AE3BB207E1F70E9464000C9444070C9461
S1130090000095B388E0892785BB84E690E00E9440
S11300A0DA06F7CF95B380E2892785BB8EE190E02D
S11300B00E94DA06F7CF95B382E0892785BB82E3F5
S11300C090E00E94DA06F7CF8FEF84BB0F2EFCEB93
S11300D0EF2EF6E0FF2EF02D01E020E030E045E5C4
S11300E050E061E670E089E490E00E9465040F2E20
S11300F0FAEBEF2EF6E0FF2EF02D20E030E045E5A0
S113010050E067E670E082E590E00E9465040F2EFF
S1130110F8EBEF2EF6E0FF2EF02D20E030E045E581
S113012050E06EE670E08BE590E00E9465040E946A
S1130130B904FFCFFC010396928381832FEF3FEF35
S113014034832383968385839087878310820895DD
S1130150FC01118610860895CF93DF93EB0148814B
S113016059814F3F2FEF520721F4FC01A781B0853D
S11301700DC0DC01139601C0DF011296ED91FC91D4
S113018013972081318142175307B0F71296ED91EE
S1130190FC911397FB83EA83D583C483BD83AC832B
S11301A01396DC93CE93129799878887FC0120815C
S11301B02F5F2083DF91CF910895CF93DF93FC01CC
S11301C0A085B185C281D381848195819D838C83EF
S11301D0C481D581828193819B838A8311968D9179
S11301E09C911297E817F90731F48481958112964E
S11301F09C938E931197118610868C9181508C93C9
S11302008C91DF91CF9108951BBC8CE78ABD8BE064
S11302108EBD89B7806189BF089531E1FC013083C7
S1130220319722E220833197A3E3A083319760833F
S11302303197708331971082319760E860833197EA
S11302401082319762E06083319763E06083319775
S113025064E06083319765E06083319766E0608392
S1130260319767E06083319768E06083319769E094
S11302706083319760E1608331973083319732E155
S11302803083319733E13083319734E130833197D0
S113029035E13083319736E13083319737E130836C
S11302A0319738E13083319739E13083319730E247
S11302B03083319731E2308331972083319723E2C1
S11302C020833197408331975083319726E22083EE
S11302D0319727E22083319728E22083319729E25E
S11302E02083319720E32083319721E3208386976D
S11302F008950E940401A091B606B091B706CD916D
S1130300CDBFDD91DEBFFF91EF91DF91CF91BF9122
S1130310AF919F918F917F916F915F914F913F9199
S11303202F911F910F91FF90EF90DF90CF90BF908E
S1130330AF909F908F907F906F905F904F903F9081
S11303402F901F900F900FBE0F90089581E0089595
S11303500F920FB6F8940F921F9211242F923F928E
S11303604F925F926F927F928F929F92AF92BF92C1
S1130370CF92DF92EF92FF920F931F932F933F93AD
S11303804F935F936F937F938F939F93AF93BF9399
S1130390CF93DF93EF93FF93A091B606B091B70686
S11303A00DB60D920EB60D920E94F006A091B606FF
S11303B0B091B706CD91CDBFDD91DEBFFF91EF9136
S11303C0DF91CF91BF91AF919F918F917F916F9169
S11303D05F914F913F912F911F910F91FF90EF905B
S11303E0DF90CF90BF90AF909F908F907F906F9051
S11303F05F904F903F902F901F900F900FBE0F90E3
S113040008950F920FB6F8940F921F9211242F9211
S11304103F924F925F926F927F928F929F92AF9290
S1130420BF92CF92DF92EF92FF920F931F932F937D
S11304303F934F935F936F937F938F939F93AF9368
S1130440BF93CF93DF93EF93FF93A091B606B09140
S1130450B7060DB60D920EB60D920E94EB048111F3
S11304600E94F006A091B606B091B706CD91CDBF1B
S1130470DD91DEBFFF91EF91DF91CF91BF91AF91FD
S11304809F918F917F916F915F914F913F912F91A8
S11304901F910F91FF90EF90DF90CF90BF90AF909E
S11304A09F908F907F906F905F904F903F902F9090
S11304B01F900F900FBE0F9008950E94010218958F
S11304C0CF93DF93EC010E94E50480917A00909130
S11304D07B00892B31F48EE790E090937B0080932E
S11304E07A002097C9F080917C0090917D009E0154
S11304F0280F391F2B3D45E0340788F482179307F2
S113050088F4C0917A00D0917B00C80FD91F309332
S11305107D0020937C0008C0C0E0D0E005C0C0E0AE
S1130520D0E002C0C0E0D0E00E940506CE01DF9119
S1130530CF9108950895E0917E06F0917F06808121
S1130540811107C08FEF9FEF90935E0680935D0645
S11305500895E0917E06F0917F060580F681E02DF6
S11305608081918190935E0680935D060895CF9378
S1130570DF93EC018F89988D0E949A02CE010E942C
S11305809A02DF91CF9108956F927F928F929F92FA
S1130590AF92BF92CF92DF92EF920F931F93CF93BC
S11305A0DF93CDB7DEB74C01D50157968D919C9161
S11305B05897215031093C01620E731E6115710573
S11305C089F416C0822F90E0FB01E80FF91F3081F7
S11305D0D501A80FB91F59963C938081882329F02F
S11305E02F5F01C020E0283068F3F50110A203C09A
S11305F0D50159961C92B3E0BE1520F40F2EF3E0FA
S1130600EF2EF02DF501E68AC50102960E94A8009E
S1130610C5010C960E94A800D5011996BC92AE9211
S1130620189784E090E08E1991091D969C938E93FF
S11306301C975396BC92AE92529784E0F501B19602
S1130640DF011D928A95E9F7F50115A2A801B4010D
S1130650C3010E940D01D5018D939C93C114D10453
S113066019F0F601B182A082DF91CF911F910F9111
S1130670EF90DF90CF90BF90AF909F908F907F903E
S11306806F900895CF93C0E010C08C2F90E09C0130
S1130690220F331F220F331F220F331F820F931F8A
S11306A08E56994F0E949A00CF5FC43070F389E848
S11306B096E00E949A0080E896E00E949A0083E700
S11306C096E00E949A008AE696E00E949A0089E8E1
S11306D096E090937F0680937E0680E896E0909360
S11306E07D0680937C06CF910895CF93DF93EC0130
S11306F00FB6F8940F92809168068F5F8093680616
S11307008091B6069091B706892B59F4D093B70619
S1130710C093B60680916806813099F40E94420322
S113072010C08091640681110CC0E091B606F0916E
S1130730B70696898E89891720F0D093B706C0939F
S1130740B60680915F068F5F80935F068E899091D5
S11307506506981710F48093650690E0FC01EE0F8F
S1130760FF1FEE0FFF1FEE0FFF1F8E0F9F1FFC01D9
S1130770EE56F94F0180F281E02DFD83EC838481F4
S113078095819F838E83A481B581CE0102961396B1
S11307909C938E93129795838483EE89F0E0CF0126
S11307A0880F991F880F991F880F991FE80FF91F49
S11307B0EE56F94FFB87EA8780818F5F80830F9025
S11307C00FBE80916406882351F0E091B606F09143
S11307D0B70696898E89981710F40E94A801DF91B4
S11307E0CF910895CF93DF931CC00FB6F8940F9266
S11307F0E0916F06F0917006C681D781CE01029612
S11308000E94DD0080916806815080936806809183
S113081069068150809369060F900FBECE010E9435
S1130820B702809169068111E0CFDF91CF910895DD
S11308300E94F203809192068230D0F30E94A801B4
S1130840F7CF0F931F93CF93DF93EC0100916606CC
S1130850109167068091B6069091B70602960E94A1
S1130860DD00C00FD11FE091B606F091B706D38327
S1130870C283C017D10768F46091B6067091B706B9
S113088080917C0690917D066E5F7F4F0E94AC0044
S113089017C06091B6067091B70680917E0690915C
S11308A07F066E5F7F4F0E94AC0080915D06909141
S11308B05E06C817D90720F4D0935E06C0935D0680
S11308C0DF91CF911F910F9108952F923F924F92F4
S11308D05F926F927F928F929F92AF92BF92CF92CC
S11308E0DF92EF92FF920F931F93CF93DF933C011C
S11308F01B015A012901CA010E9460026C01892B63
S113090071F086E290E00E946002EC01892B19F0FC
S1130910D88ECF8A06C0C6010E949A0202C0C0E0E7
S1130920D0E0209791F0950140E050E0812C912C8B
S11309305E016701E02E8201B101C3010E94C4027D
S1130940CE010E94750381E001C08FEFDF91CF914A
S11309501F910F91FF90EF90DF90CF90BF90AF90D9
S11309609F908F907F906F905F904F903F902F90CB
S11309700895EF92FF920F930F2EFBE5EF2EF6E012
S1130980FF2EF02D00E020E030E045E550E064E784
S113099070E088E194E00E946504813081F4F89469
S11309A08FEF9FEF90935E0680935D0681E08093C6
S11309B0640610926706109266060E94790180917F
S11309C060000F91FF90EF90089580915A068F5F19
S11309D080935A0608950F931F93CF93DF938091CA
S11309E05A06811101C1C0916606D09167068E0135
S11309F00F5F1F4F109367060093660601151105DC
S1130A00B9F480917E0690917F0620917C06309106
S1130A107D0630937F0620937E0690937D06809317
S1130A207C06809160068F5F809360060E949B0223
S1130A3080915D0690915E060817190720F480E006
S1130A40B8C081E001C080E0E0917E06F0917F06AD
S1130A509081911107C02FEF3FEF30935E062093F2
S1130A605D06A7C0E0917E06F0917F060580F681C1
S1130A70E02D0680F781E02D2281338102171307D0
S1130A8028F430935E0620935D0693C0A285B38557
S1130A902481358146815781E9015D834C83268118
S1130AA0378144815581E9015B834A8311962D91F5
S1130AB03C911297AF014E5F5F4F2417350731F415
S1130AC02681378112963C932E93119713861286B2
S1130AD09C9191509C93A489B589109719F126850E
S1130AE0378560897189E9017D836C832089318927
S1130AF066857785E9017B836A8311966D917C9184
S1130B0012979F01245F3F4F6217730731F42089C6
S1130B10318912963C932E931197158A148A9C91CD
S1130B2091509C93268990916506921710F4209316
S1130B30650630E0D901AA0FBB1FAA0FBB1FAA0F7D
S1130B40BB1F2A0F3B1FD901AE56B94F11960D900A
S1130B50BC91A02DB583A48314962D913C91159737
S1130B603783268314962D913C911597E9015B8375
S1130B704A8315965C934E931497A689B0E09D0121
S1130B80220F331F220F331F220F331FA20FB31F55
S1130B90AE56B94FB387A2879C919F5F9C932689D9
S1130BA0E091B606F091B7069689291708F049CF67
S1130BB04BCFE091B606F091B706268930E0F901F3
S1130BC0EE0FFF1FEE0FFF1FEE0FFF1F2E0F3F1F35
S1130BD0F901EE56F94F9081923008F081E090913E
S1130BE0610691110CC00CC080916206909163065D
S1130BF00196909363068093620680E001C081E0D1
S1130C00DF91CF911F910F910895CF93DF930FB68A
S1130C10F8940F9280915A06815080935A068091DD
S1130C205A068111BFC080916806811196C0BDC06B
S1130C30E0917806F09179060680F781E02DA48989
S1130C40B589C685D785808991899D838C83C08920
S1130C50D189868597859B838A8311962D913C91B2
S1130C601297CF010C962817390731F4808991899E
S1130C7012969C938E931197158A148A8C918150A5
S1130C808C93A285B385C481D581868197819D8308
S1130C908C83C681D781848195819B838A831196B5
S1130CA08D919C9112979F012E5F3F4F821793075E
S1130CB031F48681978112969C938E9311971386B3
S1130CC012868C9181508C93868990916506981731
S1130CD010F48093650690E0DC01AA0FBB1FAA0FF5
S1130CE0BB1FAA0FBB1F8A0F9B1FDC01AE56B94F57
S1130CF011960D90BC91A02DB583A48314968D916B
S1130D009C911597978386831496CD91DC911597C2
S1130D103B832A8315963C932E931497A689B0E0BF
S1130D20CD01880F991F880F991F880F991FA80F4D
S1130D30B91FAE56B94FB387A2878C918F5F8C933E
S1130D409689A091B606B091B70656968C919817DD
S1130D5030F081E08093610602C0E0E0F0E0809131
S1130D607306811165CFEF2B11F00E949B02C09195
S1130D706206D0916306209769F00E94EB048823F1
S1130D8019F081E0809361062197B9F71092630608
S1130D901092620680916106882331F00E94A801B6
S1130DA081E003C080E001C080E00F900FBEDF91BE
S1130DB0CF910895CF93DF93EC01892B49F00E94E2
S1130DC0E50460E0CE010E9421040E94050601C0F2
S1130DD080E0811102C00E94A801DF91CF910895A3
S1130DE080915A06882321F081E08093610608955A
S1130DF0109261062091650601C02150822F90E077
S1130E00FC01EE0FFF1FEE0FFF1FEE0FFF1FE80F99
S1130E10F91FEE56F94F3081332379F3AC01440FB7
S1130E20551F440F551F440F551F480F591FDF010D
S1130E300180F281E02D0280F381E02D1296FC9373
S1130E40EE9311974B56594FE417F50729F4428155
S1130E505381FD0152834183FC01EE0FFF1FEE0F0E
S1130E60FF1FEE0FFF1F8E0F9F1FFC01EE56F94F61
S1130E700180F281E02D868197819093B70680935B
S10F0E80B606209365060895F894FFCF91
S1130E8C036669727374007365636F6E64007468CF
S10D0E9C6972640049444C450000EB
S9030000FC
