:020000040800F2
:100000000000012051070008A1070008A10700080F
:10001000A1070008A1070008A107000800000000D0
:10002000000000000000000000000000A107000820
:10003000A107000800000000A1070008A1070008B0
:1000400000000000A1070008A1070008A1070008A0
:10005000A1070008A1070008A1070008A1070008E0
:10006000A1070008A1070008A10700080000000080
:100070000000000000000000000000000000000080
:100080000000000000000000A107000800000000C0
:10009000000000000000000000000000A1070008B0
:1000A000A1070008A1070008A1070008A107000890
:1000B000D1050008A107000800000000A107000802
:1000C000A1070008A1070008A1070008A107000870
:1000D000A107000800000000000000000000000070
:1000E000A1070008A1070008A10700080000000000
:1000F0000000000000000000000000000000000000
:1001000000000000A107000800000000A10700088F
:1001100000000000000000000000000000000000DF
:1001200000000000000000000000000000000000CF
:1001300000000000000000000000000000000000BF
:10014000000000000000000000000000A1070008FF
:10015000000000000000000000000000000000009F
:10016000A1070008A107000800000000000000002F
:10017000000000000000000000000000000000007F
:1001800000000000A10700080000000000000000BF
:04019000A1070008BB
:1001940010B5054C237833B9044B13B10448AFF3BD
:1001A40000800123237010BD100000200000000017
:1001B400EC07000808B5034B1BB103490348AFF330
:1001C400008008BD0000000014000020EC070008B7
:1001D40080B485B000AF78600023FB730FE0FB7B35
:1001E4000C4A52F82330002B06D1FB7B09497A686C
:1001F40041F82320FB7B06E0FB7B0133FB73FB7B95
:10020400042BECD9FF2318461437BD465DF8047B54
:10021400704700BF2C00002080B582B000AF0023DF
:10022400FB710DE0FB790A4A52F82330002B04D00D
:10023400FB79074A52F823309847FB790133FB7165
:10024400FB79042BEED900BF00BF0837BD4680BD43
:100254002C00002080B500AF0448FFF7B9FF034627
:100264001A46034B1A7000BF80BD00BF7902000814
:100274000000002080B400AF034B01221A7000BFBD
:10028400BD465DF8047B70474000002080B483B015
:1002940000AF87ED010A084B1B78012B05D1074BF2
:1002A4005B69064A83F00103536100BF0C37BD4606
:1002B4005DF8047B704700BF40000020000002404E
:1002C40080B500AF0448FFF783FF03461A46034B8B
:1002D4001A7000BF80BD00BFE502000801000020C5
:1002E40080B400AF034B01221A7000BFBD465DF815
:1002F400047B70474100002080B483B000AF87EDD9
:10030400010A084B1B78012B05D1074B5B69064A90
:1003140083F00203536100BF0C37BD465DF8047BD4
:10032400704700BF410000200000024080B483B049
:1003340000AF87ED010A074A7B681360064B012270
:100344001A70054B1B7818460C37BD465DF8047BC4
:10035400704700BF440000204800002080B500AF73
:10036400094B1B78012B0DD1084BD3ED007AB0EE6D
:10037400670AFFF78BFF054BD3ED007AB0EE670AEF
:10038400FFF7BAFF00BF80BD4800002044000020F2
:1003940080B483B000AF0346FB71FB7903F01F0206
:1003A400074997F907305B09012000FA02F241F886
:1003B400232000BF0C37BD465DF8047B704700BFA7
:1003C40000E100E080B400AF104B1B6C0F4A43F017
:1003D400010313644FF0804340F23F621A854FF0EB
:1003E40080436422DA624FF0804300225A624FF065
:1003F40080431B889BB24FF0804243F001039BB2C1
:10040400138000BFBD465DF8047B7047003802408E
:1004140080B500AF4FF080439B899BB24FF0804280
:1004240043F001039BB293811C20FFF7B1FF00BF8F
:1004340080BD80B500AF00F015F800BF80BD00009E
:1004440080B483B000AF064B7B607B6807EE903AC4
:10045400B0EE670A0C37BD465DF8047B704700BFF9
:100464000000C84280B582B000AF204B1B68002B4F
:1004740018D01F4B1B68002B0ED1FFF7E1FF87ED4F
:10048400010A97ED010AFFF751FF0346FB70FB7861
:10049400002B01D0FFF7C0FE164B1B68002B01D1C7
:1004A400FFF75CFF124B1B680133114A1360114BB9
:1004B4001B6801330F4A13600D4B1B680E4A126808
:1004C40093FBF2F101FB02F29B1A094A1360094BF8
:1004D4001B680A4A126893FBF2F101FB02F29B1AB1
:1004E400044A136000BF0837BD4680BD04000020E5
:1004F4004C00002050000020080000200C000020C8
:1005040080B400AF034B01221A6000BFBD465DF802
:10051400047B70470400002080B483B000AF78608F
:1005240039607B680B4A82FB03125211DB17D31A22
:10053400094A13603B68074A82FB03125211DB1716
:10054400D31A064A136000BF0C37BD465DF8047B1E
:10055400704700BF1F85EB51080000200C000020ED
:1005640080B500AF174B1B6B164A43F001031363AE
:10057400154B1B68144A43F001031360124B1B68AC
:10058400114A23F0020313600F4B1B680E4A43F019
:10059400040313600C4B1B680B4A23F0080313601D
:1005A400FFF758FEFFF78CFEFFF70CFFFFF730FF55
:1005B4004FF448714FF4FA70FFF7AEFFFFF7A0FF56
:1005C400FEE700BF003802400000024080B500AFE3
:1005D4004FF080431B8A9BB24FF0804223F001030B
:1005E4009BB21382FFF725FF00BF80BD80B500AF2B
:1005F400164BD3F88830154A43F47003C2F8883098
:10060400134B1B68124A43F001031360104B002282
:100614009A600F4B1B680E4A23F0847323F48033D3
:1006240013600B4B0B4A5A60094B1B68084A23F4AE
:1006340080231360064B0022DA6000F00DF8034BB0
:100644004FF000629A6000BF80BD00BF00ED00E083
:10065400003802401030002480B483B000AF00237F
:100664007B6000233B60354B1B68344A43F4803382
:100674001360324B1B6803F400333B607B68013327
:100684007B603B68002B03D17B68B3F5A04FF0D1AE
:100694002A4B1B6803F40033002B02D001233B6078
:1006A40001E000233B603B68012B40D1234B1B6CD2
:1006B400224A43F080531364214B1B68204A43F4BD
:1006C400404313601D4B1D4A9B6893601B4B1B4AA0
:1006D4009B689360194B9B68184A43F4805393605A
:1006E400164B184A5A60154B1B68144A43F0807322
:1006F400136000BF114B1B6803F00073002BF9D08B
:10070400114B40F202721A600C4B9B680B4A23F0A7
:1007140003039360094B9B68084A43F00203936008
:1007240000BF064B9B6803F00C03082BF9D100BFF4
:100734000C37BD465DF8047B704700BF00380240AB
:100744000070004019544107003C02400D488546A2
:100754000D480E490E4A002302E0D458C450043315
:10076400C4188C42F9D30B4A0B4C002301E01360EC
:100774000432A242FBD3FFF739FF00F011F8FFF770
:10078400EFFEFEE700000120000000201000002022
:100794000C0800081000002054000020FEE70000B0
:1007A40070B50D4D0D4C641BA4100026A64209D152
:1007B4000B4D0C4C00F018F8641BA4100026A64244
:1007C40005D170BD55F8043B98470136EEE755F85E
:1007D400043B98470136F2E70408000804080008BF
:1007E4000408000808080008F8B500BFF8BC08BCF5
:1007F4009E467047F8B500BFF8BC08BC9E467047DB
:04080400B90100082E
:04080800950100084E
:10080C00FFFF0000010000000100000001000000DB
:040000050800075197
:00000001FF
