:020000040800F2
:100000000000012025070008750700087507000893
:100010007507000875070008750700080000000054
:10002000000000000000000000000000750700084C
:100030007507000800000000750700087507000834
:100040000000000075070008750700087507000824
:100050007507000875070008750700087507000890
:100060007507000875070008750700080000000004
:100070000000000000000000000000000000000080
:1000800000000000000000007507000800000000EC
:1000900000000000000000000000000075070008DC
:1000A0007507000875070008750700087507000840
:1000B000A305000875070008000000007507000888
:1000C0007507000875070008750700087507000820
:1000D000750700080000000000000000000000009C
:1000E0007507000875070008750700080000000084
:1000F0000000000000000000000000000000000000
:1001000000000000750700080000000075070008E7
:1001100000000000000000000000000000000000DF
:1001200000000000000000000000000000000000CF
:1001300000000000000000000000000000000000BF
:10014000000000000000000000000000750700082B
:10015000000000000000000000000000000000009F
:100160007507000875070008000000000000000087
:10017000000000000000000000000000000000007F
:1001800000000000750700080000000000000000EB
:0401900075070008E7
:1001940010B5054C237833B9044B13B10448AFF3BD
:1001A40000800123237010BD0C000020000000001B
:1001B400C007000808B5034B1BB103490348AFF35C
:1001C400008008BD0000000010000020C0070008E7
:1001D40080B483B000AF0346FB71FB7903F01F02C8
:1001E400074997F907305B09012000FA02F241F848
:1001F400232000BF0C37BD465DF8047B704700BF69
:1002040000E100E080B400AF104B1B6C0F4A43F0D8
:10021400010313644FF0804340F23F621A854FF0AC
:1002240080436422DA624FF0804300225A624FF026
:1002340080431B889BB24FF0804243F001039BB282
:10024400138000BFBD465DF8047B70470038024050
:1002540080B500AF4FF080439B899BB24FF0804242
:1002640043F001039BB293811C20FFF7B1FF00BF51
:1002740080BD80B500AF00F03BF900BF80BD000039
:1002840080B500AF074B1B78002B09D0064B1878BC
:10029400064B1978064B1A68064B1B7800F092F847
:1002A40000BF80BD2E000020000000202C00002094
:1002B400280000202D00002080B400AF3E4B1B6BB3
:1002C4003D4A43F0010313633C4B1B683B4A23F450
:1002D40080331360394B1B68384A43F4003313608E
:1002E400364B1B68354A23F480231360334B1B6859
:1002F400324A43F400231360304B5B6A2F4A23F0E5
:10030400FF0353622D4B5B6A2C4A43F04403536250
:100314002A4B5B68294A43F480735360274B5B681C
:10032400264A43F400735360244BDB68234A43F4A6
:100334008033D360214BDB68204A23F40033D3603D
:100344001E4BDB681D4A43F48023D3601B4BDB68E0
:100354001A4A23F40023D360174B1B6C164A43F448
:1003640000131364164B1B889BB2154A6FEA434370
:100374006FEA53439BB21380114B1B889BB2104A04
:100384006FEAD3336FEAC3339BB213800C4B08225A
:100394009A800B4B50229A83094B11221A84084BE2
:1003A4001B889BB2064A43F001039BB2138000BF33
:1003B400BD465DF8047B70470038024000040240EB
:1003C4000054004080B487B000AFBA607B6003463D
:1003D400FB730B46BB7300BF444B1B8B9BB203F0F8
:1003E4000203002BF8D1414B1B889BB23F4A43F4D4
:1003F40080739BB2138000BF3C4B9B8A9BB203F07B
:100404000103002BF8D0FB7B9BB2384A5B009BB204
:10041400138200BF354B9B8A9BB203F00203002B6F
:10042400F8D0324B1B8B9BB23B61304BBA7B92B200
:100434001A8200BF2D4B9B8A9BB203F08003002BD2
:10044400F8D02A4B1B889BB2284A43F480739BB292
:10045400138000BF254B9B8A9BB203F00103002B42
:10046400F8D0FB7B9BB25B009BB2204A43F00103B4
:100474009BB2138200BF1D4B9B8A9BB203F0020305
:10048400002BF8D0194B1B8B9BB23B6100237B6183
:1004940012E000BF154B9B8A9BB203F04003002B74
:1004A400F8D0124B1B8A99B27B69BA681344CAB25A
:1004B4001A707B6901337B617A697B689A42E8DB55
:1004C4000A4B1B889BB2094A23F480639BB21380B6
:1004D400064B1B889BB2054A43F400739BB21380FE
:1004E40000BF1C37BD465DF8047B704700540040D4
:1004F40080B500AF0D4B1B68002B05D00C4B1B685F
:10050400002B01D1FFF7BCFE094B1B680133084ADD
:100514001360074B1B68074A126893FBF2F101FB57
:1005240002F29B1A024A136000BF80BD040000203F
:10053400300000200800002080B400AF034B0122EB
:100544001A6000BFBD465DF8047B704704000020BC
:1005540080B483B000AF78607B68074A82FB0312E3
:100564005211DB17D31A054A136000BF0C37BD467E
:100574005DF8047B704700BF1F85EB510800002025
:1005840080B500AFFFF73EFEFFF762FE4FF4FA704E
:10059400FFF7DEFFFFF7D0FFFFF78EFEFEE780B523
:1005A40000AF4FF080431B8A9BB24FF0804223F090
:1005B40001039BB21382FFF75CFE00BF80BD000005
:1005C40080B500AF164BD3F88830154A43F4700356
:1005D400C2F88830134B1B68124A43F001031360BE
:1005E400104B00229A600F4B1B680E4A23F0847351
:1005F40023F4803313600B4B0B4A5A60094B1B687E
:10060400084A23F480231360064B0022DA6000F0CA
:100614000DF8034B4FF000629A6000BF80BD00BF2D
:1006240000ED00E0003802401030002480B483B0B4
:1006340000AF00237B6000233B60354B1B68344ACA
:1006440043F480331360324B1B6803F400333B6084
:100654007B6801337B603B68002B03D17B68B3F577
:10066400A04FF0D12A4B1B6803F40033002B02D0B7
:1006740001233B6001E000233B603B68012B40D138
:10068400234B1B6C224A43F080531364214B1B6899
:10069400204A43F4404313601D4B1D4A9B689360FA
:1006A4001B4B1B4A9B689360194B9B68184A43F485
:1006B40080539360164B184A5A60154B1B68144AB2
:1006C40043F08073136000BF114B1B6803F0007389
:1006D400002BF9D0114B40F202721A600C4B9B684C
:1006E4000B4A23F003039360094B9B68084A43F0C9
:1006F4000203936000BF064B9B6803F00C03082BB6
:10070400F9D100BF0C37BD465DF8047B704700BFCC
:10071400003802400070004019544107003C024078
:100724000D4885460D480E490E4A002302E0D45870
:10073400C4500433C4188C42F9D30B4A0B4C002325
:1007440001E013600432A242FBD3FFF739FF00F04B
:1007540011F8FFF715FFFEE700000120000000205C
:100764000C000020E00700080C00002034000020EA
:10077400FEE7000070B50D4D0D4C641BA41000265F
:10078400A64209D10B4D0C4C00F018F8641BA410C0
:100794000026A64205D170BD55F8043B98470136A2
:1007A400EEE755F8043B98470136F2E7D80700080E
:1007B400D8070008D8070008DC070008F8B500BF10
:1007C400F8BC08BC9E467047F8B500BFF8BC08BC2E
:0407D4009E46704786
:0407D800B90100085B
:0407DC00950100087B
:0C07E000440000000100000001000000C7
:0400000508000725C3
:00000001FF
