:020000040800F2
:10000000000001203906000889060008890600085A
:10001000890600088906000889060008000000001B
:100020000000000000000000000000008906000839
:1000300089060008000000008906000889060008FB
:100040008906000889060008890600088906000854
:100050008906000889060008890600088906000844
:100060008906000889060008890600088906000834
:100070008906000889060008890600088906000824
:1000800089060008890600088906000800000000AB
:1000900000000000000000000000000089060008C9
:1000A00089060008890600088906000889060008F4
:1000B0003B05000889060008890600088906000833
:1000C00089060008890600088906000889060008D4
:1000D000890600088906000889060008000000005B
:1000E000890600088906000889060008000000004B
:1000F0000000000000000000000000008906000869
:10010000000000008906000889060008890600082A
:1001100000000000000000000000000000000000DF
:100120008906000889060008890600088906000873
:100130008906000800000000000000000000000028
:100140000000000000000000000000008906000818
:100150008906000889060008890600088906000843
:100160008906000889060008000000000000000061
:10017000000000000000000000000000000000007F
:1001800000000000890600080000000000000000D8
:0401900089060008D4
:1001940010B5054C237833B9044B13B10448AFF3BD
:1001A40000800123237010BD2800002000000000FF
:1001B400D406000808B5034B1BB103490348AFF349
:1001C400008008BD000000002C000020D4060008B8
:1001D40080B483B000AF0346FB71084B1B68FA7907
:1001E400012101FA02F21146044A0B43136000BFD5
:1001F4000C37BD465DF8047B704700BF30380240C1
:1002040090B482B000AF0446084611461A4623460D
:10021400FB710346BB710B467B7113463B71FA7944
:10022400564913469B0013449B000B441B681968F2
:10023400BB795B00032202FA03F3DB431C46FA7921
:100244004E4813469B0013449B0003441B6801EA79
:1002540004021A60FA79494913469B0013449B002F
:100264000B441B6819687A79BB795B0002FA03F3C3
:100274001C46FA79414813469B0013449B000344EF
:100284001B6841EA04021A60FA793C4913469B0050
:1002940013449B000B4404331B681968BB79012287
:1002A40002FA03F3DB431C46FA79344813469B00F5
:1002B40013449B00034404331B6801EA04021A60DC
:1002C400FA792E4913469B0013449B000B440433D4
:1002D4001B6819683B7903F00102BB7902FA03F346
:1002E4001C46FA79254813469B0013449B0003449B
:1002F40004331B6841EA04021A60FA791F49134661
:100304009B0013449B000B4408331B681968BB799A
:100314005B00032202FA03F3DB431C46FA79174815
:1003240013469B0013449B00034408331B6801EAF3
:1003340004021A60FA79114913469B0013449B0086
:100344000B4408331B6819683B795B1003F0030204
:10035400BB795B0002FA03F31C46FA79074813469B
:100364009B0013449B00034408331B6841EA0402C6
:100374001A6000BF0837BD4690BC704700000020DB
:1003840080B500AF4021034800F002F90346184647
:1003940080BD00BF0038024080B582B000AF034684
:1003A400FB71FB7903F580139B020021184600F0D2
:1003B400EFF8034618460837BD4680BD80B582B0C5
:1003C40000AF0346FB71FB7903F580139B020C21FC
:1003D400184600F0DDF8034618460837BD4680BDD0
:1003E40080B582B000AF0346FB71FB7903F580133F
:1003F4009B022821184600F0CBF80346184608371C
:10040400BD4680BD80B582B000AF0346FB71FB7969
:1004140003F580139B022C21184600F0B9F803461B
:1004240018460837BD4680BD80B582B000AF03468C
:10043400FB71FFF7A5FF03461968FA79023A012018
:1004440000FA02F20A431A6000BF0837BD4680BDB5
:1004540080B582B000AF3A601A460346FB710B4682
:10046400BB711346BB80FB79023BDBB21846FFF736
:1004740093FF03461A6842F080021A60FB79023B3C
:10048400DBB21846FFF788FF03461968BA791201F0
:100494000A431A60FB79023BDBB21846FFF7A0FF60
:1004A4000246BB881360FB79023BDBB21846FFF7B8
:1004B400A9FF02463B68136000BF0837BD4680BDF4
:1004C40080B582B000AF0346FB71FB79023BDBB21F
:1004D4001846FFF773FF03461A6842F001021A60D8
:1004E400FB79023BDBB21846FFF756FF03461A6856
:1004F40042F001021A6000BF0837BD4680BD80B5D6
:1005040082B000AF03460A46FB711346BB71FB7908
:10051400023BDBB21846FFF73FFF03461B68DAB223
:10052400BB79012101FA03F3DBB21340DBB21846B5
:100534000837BD4680BD80B500AF00F055F80020F7
:10054400FFF72AFF034600221A6000BF80BD0000A7
:1005540080B500AF0021034800F01AF8034618469E
:1005640080BD00BF00E100E080B582B000AF03466B
:10057400FB71FFF7EDFF03461968FA791A3201207F
:1005840000FA02F20A431A6000BF0837BD4680BD74
:1005940080B483B000AF786039607A683B681344F4
:1005A40018460C37BD465DF8047B704780B500AF34
:1005B4000020FFF70DFE0220FFF736FF0023012283
:1005C40001210020FFF71CFE43F67F634FF47A728B
:1005D40001210220FFF73CFF0220FFF7C5FF0220A4
:1005E400FFF76EFFFEE7000080B500AF0021022098
:1005F400FFF785FF0346002B05D0044B1B68034A15
:1006040083F00203136000BF80BD00BF14000240EA
:1006140080B400AF064BD3F88830054A43F4700326
:10062400C2F8883000BFBD465DF8047B704700BF48
:1006340000ED00E0DFF834D00D480E490E4A0023E7
:1006440002E0D458C4500433C4188C42F9D30B4A82
:100654000B4C002301E013600432A242FBD3FFF7EA
:10066400D7FF00F011F8FFF7A1FF70470000012049
:100674000000002028000020F406000828000020C4
:1006840044000020FEE7000070B50D4D0D4C641BC6
:10069400A4100026A64209D10B4D0C4C00F018F80A
:1006A400641BA4100026A64205D170BD55F8043B76
:1006B40098470136EEE755F8043B98470136F2E7D0
:1006C400EC060008EC060008EC060008F00600083A
:1006D400F8B500BFF8BC08BC9E467047F8B500BF2B
:0806E400F8BC08BC9E467047FB
:0406EC00B901000848
:0406F0009501000868
:1006F40000000240040002400C00024010000240CE
:100704001400024000040240040402400C040240AD
:0807140010040240140402402D
:0400000508000639B0
:00000001FF
