:020000040800F2
:1000000000000120F905000849060008490600081B
:1000100049060008490600084906000800000000DB
:100020000000000000000000000000004906000879
:1000300049060008000000004906000849060008BB
:100040004906000849060008490600084906000854
:100050004906000849060008490600084906000844
:100060004906000849060008490600084906000834
:100070004906000849060008490600084906000824
:10008000490600084906000849060008000000006B
:100090000000000000000000000000004906000809
:1000A00049060008490600084906000849060008F4
:1000B0002905000849060008490600084906000805
:1000C00049060008490600084906000849060008D4
:1000D000490600084906000849060008000000001B
:1000E000490600084906000849060008000000000B
:1000F00000000000000000000000000049060008A9
:1001000000000000490600084906000849060008EA
:1001100000000000000000000000000000000000DF
:100120004906000849060008490600084906000873
:100130004906000800000000000000000000000068
:100140000000000000000000000000004906000858
:100150004906000849060008490600084906000843
:1001600049060008490600080000000000000000E1
:10017000000000000000000000000000000000007F
:100180000000000049060008000000000000000018
:040190004906000814
:1001940010B5054C237833B9044B13B10448AFF3BD
:1001A40000800123237010BD98000020000000008F
:1001B4009406000808B5034B1BB103490348AFF389
:1001C400008008BD000000009C0000209406000888
:1001D40080B483B000AF0346FB71084B1B68FA7907
:1001E400012101FA02F21146044A0B43136000BFD5
:1001F4000C37BD465DF8047B704700BF30380240C1
:1002040090B482B000AF0446084611461A4623460D
:10021400FB710346BB710B467B7113463B71FA7944
:10022400564913469B0013449B000B441B681968F2
:10023400BB795B00032202FA03F3DB431C46FA7921
:100244004E4813469B0013449B0003441B6801EA79
:1002540004021A60FA79494913469B0013449B002F
:100264000B441B6819687A79BB795B0002FA03F3C3
:100274001C46FA79414813469B0013449B000344EF
:100284001B6841EA04021A60FA793C4913469B0050
:1002940013449B000B4404331B681968BB79012287
:1002A40002FA03F3DB431C46FA79344813469B00F5
:1002B40013449B00034404331B6801EA04021A60DC
:1002C400FA792E4913469B0013449B000B440433D4
:1002D4001B6819683B7903F00102BB7902FA03F346
:1002E4001C46FA79254813469B0013449B0003449B
:1002F40004331B6841EA04021A60FA791F49134661
:100304009B0013449B000B4408331B681968BB799A
:100314005B00032202FA03F3DB431C46FA79174815
:1003240013469B0013449B00034408331B6801EAF3
:1003340004021A60FA79114913469B0013449B0086
:100344000B4408331B6819683B795B1003F0030204
:10035400BB795B0002FA03F31C46FA79074813469B
:100364009B0013449B00034408331B6841EA0402C6
:100374001A6000BF0837BD4690BC704700000020DB
:1003840080B483B000AF0346FB71084B1B68FA7955
:10039400023A012101FA02F21146044A0B431360A6
:1003A40000BF0C37BD465DF8047B704740380240FF
:1003B40090B482B000AF3A601A460346FB710B4614
:1003C400BB711346BB80FB799A1E25491346DB009B
:1003D4009B1A9B000B441B681968FB799A1E2048E2
:1003E4001346DB009B1A9B0003441B6841F0800208
:1003F4001A60FB799A1E1A491346DB009B1A9B006C
:100404000B441B681968BB791B011C46FB799A1EB7
:1004140013481346DB009B1A9B0003441B6841EA04
:1004240004021A60FB799A1E0D491346DB009B1ADD
:100434009B000B4414331B68BA881A60FB799A1E1C
:1004440007491346DB009B1A9B000B4418331B68B7
:100454003A681A6000BF0837BD4690BC704700BFB9
:100464002800002080B483B000AF0346FB71FB7901
:100474009A1E19491346DB009B1A9B000B44043354
:100484001B681968FB799A1E13481346DB009B1AF4
:100494009B00034404331B6841F001021A60FB799A
:1004A4009A1E0D491346DB009B1A9B000B441B68E4
:1004B4001968FB799A1E08481346DB009B1A9B00B7
:1004C40003441B6841F001021A6000BF0C37BD46AB
:1004D4005DF8047B704700BF2800002080B483B01F
:1004E40000AF03460A46FB711346BB71FB799A1EA3
:1004F4000B491346DB009B1A9B000B4408331B6813
:100504001B68DAB2BB79012101FA03F3DBB21340B1
:10051400DBB218460C37BD465DF8047B704700BF5C
:100524002800002080B500AF00F020F8024B9B6843
:1005340000221A6000BF80BD2800002080B483B070
:1005440000AF0346FB71084B1B68FA791A3201218C
:1005540001FA02F21146044A0B43136000BF0C3740
:10056400BD465DF8047B704700E100E080B500AF54
:1005740000210220FFF7B2FF0346002B05D0044BF5
:100584001B68034A83F00203136000BF80BD00BFF1
:100594001400024080B500AF0020FFF719FE0220CE
:1005A400FFF7EEFE0023012201210020FFF728FEC1
:1005B40043F67F634FF47A7201210220FFF7F8FEBD
:1005C4000220FFF7BBFF0220FFF74CFFFEE700000D
:1005D40080B400AF064BD3F88830054A43F4700367
:1005E400C2F8883000BFBD465DF8047B704700BF89
:1005F40000ED00E0DFF834D00D480E490E4A002328
:1006040002E0D458C4500433C4188C42F9D30B4AC2
:100614000B4C002301E013600432A242FBD3FFF72A
:10062400D7FF00F011F8FFF7B5FF70470000012075
:100634000000002098000020B40600089800002064
:10064400B4000020FEE7000070B50D4D0D4C641B96
:10065400A4100026A64209D10B4D0C4C00F018F84A
:10066400641BA4100026A64205D170BD55F8043BB6
:1006740098470136EEE755F8043B98470136F2E710
:10068400AC060008AC060008AC060008B00600087A
:10069400F8B500BFF8BC08BC9E467047F8B500BF6B
:0806A400F8BC08BC9E4670473B
:0406AC00B901000888
:0406B00095010008A8
:1006B40000000240040002400C000240100002400E
:1006C4001400024000040240040402400C040240EE
:1006D4001004024014040240000000400C000040DA
:1006E4001000004014000040240000402800004096
:1006F4002C000040000400400C04004010040040A2
:100704001404004024040040280400402C04004049
:10071400000800400C080040100800401408004085
:1007240024080040280800402C080040000C004029
:100734000C0C0040100C0040140C0040240C004031
:08074400280C00402C0C0040C1
:04000005080005F9F1
:00000001FF
